{
  "_format": "hh-sol-artifact-1",
  "contractName": "TransactionRegistry",
  "sourceName": "contracts/TransactionRegistry.sol",
  "abi": [
    {
      "anonymous": false,
      "inputs": [
        {
          "indexed": true,
          "internalType": "string",
          "name": "transactionHash",
          "type": "string"
        },
        {
          "indexed": false,
          "internalType": "uint256",
          "name": "amount",
          "type": "uint256"
        },
        {
          "indexed": false,
          "internalType": "uint8",
          "name": "status",
          "type": "uint8"
        },
        {
          "indexed": false,
          "internalType": "uint256",
          "name": "timestamp",
          "type": "uint256"
        },
        {
          "indexed": true,
          "internalType": "address",
          "name": "submittedBy",
          "type": "address"
        }
      ],
      "name": "TransactionStored",
      "type": "event"
    },
    {
      "inputs": [
        {
          "internalType": "string",
          "name": "_txHash",
          "type": "string"
        }
      ],
      "name": "getTransaction",
      "outputs": [
        {
          "internalType": "string",
          "name": "transactionHash",
          "type": "string"
        },
        {
          "internalType": "uint256",
          "name": "amount",
          "type": "uint256"
        },
        {
          "internalType": "uint8",
          "name": "status",
          "type": "uint8"
        },
        {
          "internalType": "uint256",
          "name": "timestamp",
          "type": "uint256"
        },
        {
          "internalType": "address",
          "name": "submittedBy",
          "type": "address"
        }
      ],
      "stateMutability": "view",
      "type": "function"
    },
    {
      "inputs": [],
      "name": "getTransactionCount",
      "outputs": [
        {
          "internalType": "uint256",
          "name": "",
          "type": "uint256"
        }
      ],
      "stateMutability": "view",
      "type": "function"
    },
    {
      "inputs": [
        {
          "internalType": "uint256",
          "name": "index",
          "type": "uint256"
        }
      ],
      "name": "getTransactionHashByIndex",
      "outputs": [
        {
          "internalType": "string",
          "name": "",
          "type": "string"
        }
      ],
      "stateMutability": "view",
      "type": "function"
    },
    {
      "inputs": [
        {
          "internalType": "string[]",
          "name": "_txHashes",
          "type": "string[]"
        },
        {
          "internalType": "uint256[]",
          "name": "_amounts",
          "type": "uint256[]"
        },
        {
          "internalType": "uint8[]",
          "name": "_statuses",
          "type": "uint8[]"
        }
      ],
      "name": "storeBatchTransactions",
      "outputs": [],
      "stateMutability": "payable",
      "type": "function"
    },
    {
      "inputs": [
        {
          "internalType": "string",
          "name": "_txHash",
          "type": "string"
        },
        {
          "internalType": "uint256",
          "name": "_amount",
          "type": "uint256"
        },
        {
          "internalType": "uint8",
          "name": "_status",
          "type": "uint8"
        }
      ],
      "name": "storeTransaction",
      "outputs": [],
      "stateMutability": "payable",
      "type": "function"
    },
    {
      "inputs": [
        {
          "internalType": "uint256",
          "name": "",
          "type": "uint256"
        }
      ],
      "name": "transactionHashes",
      "outputs": [
        {
          "internalType": "string",
          "name": "",
          "type": "string"
        }
      ],
      "stateMutability": "view",
      "type": "function"
    },
    {
      "inputs": [
        {
          "internalType": "string",
          "name": "",
          "type": "string"
        }
      ],
      "name": "transactions",
      "outputs": [
        {
          "internalType": "string",
          "name": "transactionHash",
          "type": "string"
        },
        {
          "internalType": "uint256",
          "name": "amount",
          "type": "uint256"
        },
        {
          "internalType": "uint8",
          "name": "status",
          "type": "uint8"
        },
        {
          "internalType": "uint256",
          "name": "timestamp",
          "type": "uint256"
        },
        {
          "internalType": "address",
          "name": "submittedBy",
          "type": "address"
        }
      ],
      "stateMutability": "view",
      "type": "function"
    }
  ],
  "bytecode": "0x608060405234801561001057600080fd5b5061164d806100206000396000f3fe6080604052600436106100705760003560e01c80632e7700f01161004e5780632e7700f014610130578063a67d96101461015b578063ac2ccd0714610177578063f8a987f2146101b857610070565b8063022236f414610075578063213dafcd146100b657806322a69287146100f3575b600080fd5b34801561008157600080fd5b5061009c60048036038101906100979190610a7d565b6101d4565b6040516100ad959493929190610bbb565b60405180910390f35b3480156100c257600080fd5b506100dd60048036038101906100d89190610c41565b6102d5565b6040516100ea9190610c6e565b60405180910390f35b3480156100ff57600080fd5b5061011a60048036038101906101159190610c41565b610381565b6040516101279190610c6e565b60405180910390f35b34801561013c57600080fd5b50610145610478565b6040516101529190610c90565b60405180910390f35b61017560048036038101906101709190610f43565b610485565b005b34801561018357600080fd5b5061019e60048036038101906101999190610a7d565b610554565b6040516101af959493929190610bbb565b60405180910390f35b6101d260048036038101906101cd9190610fea565b6106ce565b005b60008180516020810182018051848252602083016020850120818352809550505050505060009150905080600001805461020d90611088565b80601f016020809104026020016040519081016040528092919081815260200182805461023990611088565b80156102865780601f1061025b57610100808354040283529160200191610286565b820191906000526020600020905b81548152906001019060200180831161026957829003601f168201915b5050505050908060010154908060020160009054906101000a900460ff16908060030154908060040160009054906101000a900473ffffffffffffffffffffffffffffffffffffffff16905085565b600181815481106102e557600080fd5b90600052602060002001600091509050805461030090611088565b80601f016020809104026020016040519081016040528092919081815260200182805461032c90611088565b80156103795780601f1061034e57610100808354040283529160200191610379565b820191906000526020600020905b81548152906001019060200180831161035c57829003601f168201915b505050505081565b606060018054905082106103ca576040517f08c379a00000000000000000000000000000000000000000000000000000000081526004016103c190611105565b60405180910390fd5b600182815481106103de576103dd611125565b5b9060005260206000200180546103f390611088565b80601f016020809104026020016040519081016040528092919081815260200182805461041f90611088565b801561046c5780601f106104415761010080835404028352916020019161046c565b820191906000526020600020905b81548152906001019060200180831161044f57829003601f168201915b50505050509050919050565b6000600180549050905090565b81518351148015610497575080518251145b6104d6576040517f08c379a00000000000000000000000000000000000000000000000000000000081526004016104cd906111a0565b60405180910390fd5b60005b835181101561054e5761053b8482815181106104f8576104f7611125565b5b602002602001015184838151811061051357610512611125565b5b602002602001015184848151811061052e5761052d611125565b5b60200260200101516106ce565b8080610546906111ef565b9150506104d9565b50505050565b60606000806000806000808760405161056d9190611273565b90815260200160405180910390206040518060a001604052908160008201805461059690611088565b80601f01602080910402602001604051908101604052809291908181526020018280546105c290611088565b801561060f5780601f106105e45761010080835404028352916020019161060f565b820191906000526020600020905b8154815290600101906020018083116105f257829003601f168201915b50505050508152602001600182015481526020016002820160009054906101000a900460ff1660ff1660ff168152602001600382015481526020016004820160009054906101000a900473ffffffffffffffffffffffffffffffffffffffff1673ffffffffffffffffffffffffffffffffffffffff1673ffffffffffffffffffffffffffffffffffffffff1681525050905080600001518160200151826040015183606001518460800151955095509550955095505091939590929450565b6000835111610712576040517f08c379a0000000000000000000000000000000000000000000000000000000008152600401610709906112d6565b60405180910390fd5b60038160ff161115610759576040517f08c379a000000000000000000000000000000000000000000000000000000000815260040161075090611342565b60405180910390fd5b6000808460405161076a9190611273565b9081526020016040518091039020600001805461078690611088565b90500361091e576040518060a001604052808481526020018381526020018260ff1681526020014281526020013373ffffffffffffffffffffffffffffffffffffffff168152506000846040516107dd9190611273565b90815260200160405180910390206000820151816000019081610800919061150e565b506020820151816001015560408201518160020160006101000a81548160ff021916908360ff1602179055506060820151816003015560808201518160040160006101000a81548173ffffffffffffffffffffffffffffffffffffffff021916908373ffffffffffffffffffffffffffffffffffffffff1602179055509050506001839080600181540180825580915050600190039060005260206000200160009091909190915090816108b4919061150e565b503373ffffffffffffffffffffffffffffffffffffffff16836040516108da9190611273565b60405180910390207fba251c0778bc76bda0a6c0f16b9c6e61660e666c27b100984213924b9760e648848442604051610915939291906115e0565b60405180910390a35b505050565b6000604051905090565b600080fd5b600080fd5b600080fd5b600080fd5b6000601f19601f8301169050919050565b7f4e487b7100000000000000000000000000000000000000000000000000000000600052604160045260246000fd5b61098a82610941565b810181811067ffffffffffffffff821117156109a9576109a8610952565b5b80604052505050565b60006109bc610923565b90506109c88282610981565b919050565b600067ffffffffffffffff8211156109e8576109e7610952565b5b6109f182610941565b9050602081019050919050565b82818337600083830152505050565b6000610a20610a1b846109cd565b6109b2565b905082815260208101848484011115610a3c57610a3b61093c565b5b610a478482856109fe565b509392505050565b600082601f830112610a6457610a63610937565b5b8135610a74848260208601610a0d565b91505092915050565b600060208284031215610a9357610a9261092d565b5b600082013567ffffffffffffffff811115610ab157610ab0610932565b5b610abd84828501610a4f565b91505092915050565b600081519050919050565b600082825260208201905092915050565b60005b83811015610b00578082015181840152602081019050610ae5565b60008484015250505050565b6000610b1782610ac6565b610b218185610ad1565b9350610b31818560208601610ae2565b610b3a81610941565b840191505092915050565b6000819050919050565b610b5881610b45565b82525050565b600060ff82169050919050565b610b7481610b5e565b82525050565b600073ffffffffffffffffffffffffffffffffffffffff82169050919050565b6000610ba582610b7a565b9050919050565b610bb581610b9a565b82525050565b600060a0820190508181036000830152610bd58188610b0c565b9050610be46020830187610b4f565b610bf16040830186610b6b565b610bfe6060830185610b4f565b610c0b6080830184610bac565b9695505050505050565b610c1e81610b45565b8114610c2957600080fd5b50565b600081359050610c3b81610c15565b92915050565b600060208284031215610c5757610c5661092d565b5b6000610c6584828501610c2c565b91505092915050565b60006020820190508181036000830152610c888184610b0c565b905092915050565b6000602082019050610ca56000830184610b4f565b92915050565b600067ffffffffffffffff821115610cc657610cc5610952565b5b602082029050602081019050919050565b600080fd5b6000610cef610cea84610cab565b6109b2565b90508083825260208201905060208402830185811115610d1257610d11610cd7565b5b835b81811015610d5957803567ffffffffffffffff811115610d3757610d36610937565b5b808601610d448982610a4f565b85526020850194505050602081019050610d14565b5050509392505050565b600082601f830112610d7857610d77610937565b5b8135610d88848260208601610cdc565b91505092915050565b600067ffffffffffffffff821115610dac57610dab610952565b5b602082029050602081019050919050565b6000610dd0610dcb84610d91565b6109b2565b90508083825260208201905060208402830185811115610df357610df2610cd7565b5b835b81811015610e1c5780610e088882610c2c565b845260208401935050602081019050610df5565b5050509392505050565b600082601f830112610e3b57610e3a610937565b5b8135610e4b848260208601610dbd565b91505092915050565b600067ffffffffffffffff821115610e6f57610e6e610952565b5b602082029050602081019050919050565b610e8981610b5e565b8114610e9457600080fd5b50565b600081359050610ea681610e80565b92915050565b6000610ebf610eba84610e54565b6109b2565b90508083825260208201905060208402830185811115610ee257610ee1610cd7565b5b835b81811015610f0b5780610ef78882610e97565b845260208401935050602081019050610ee4565b5050509392505050565b600082601f830112610f2a57610f29610937565b5b8135610f3a848260208601610eac565b91505092915050565b600080600060608486031215610f5c57610f5b61092d565b5b600084013567ffffffffffffffff811115610f7a57610f79610932565b5b610f8686828701610d63565b935050602084013567ffffffffffffffff811115610fa757610fa6610932565b5b610fb386828701610e26565b925050604084013567ffffffffffffffff811115610fd457610fd3610932565b5b610fe086828701610f15565b9150509250925092565b6000806000606084860312156110035761100261092d565b5b600084013567ffffffffffffffff81111561102157611020610932565b5b61102d86828701610a4f565b935050602061103e86828701610c2c565b925050604061104f86828701610e97565b9150509250925092565b7f4e487b7100000000000000000000000000000000000000000000000000000000600052602260045260246000fd5b600060028204905060018216806110a057607f821691505b6020821081036110b3576110b2611059565b5b50919050565b7f496e646578206f7574206f6620626f756e647300000000000000000000000000600082015250565b60006110ef601383610ad1565b91506110fa826110b9565b602082019050919050565b6000602082019050818103600083015261111e816110e2565b9050919050565b7f4e487b7100000000000000000000000000000000000000000000000000000000600052603260045260246000fd5b7f4172726179206c656e67746873206d757374206d617463680000000000000000600082015250565b600061118a601883610ad1565b915061119582611154565b602082019050919050565b600060208201905081810360008301526111b98161117d565b9050919050565b7f4e487b7100000000000000000000000000000000000000000000000000000000600052601160045260246000fd5b60006111fa82610b45565b91507fffffffffffffffffffffffffffffffffffffffffffffffffffffffffffffffff820361122c5761122b6111c0565b5b600182019050919050565b600081905092915050565b600061124d82610ac6565b6112578185611237565b9350611267818560208601610ae2565b80840191505092915050565b600061127f8284611242565b915081905092915050565b7f5472616e73616374696f6e20686173682063616e6e6f7420626520656d707479600082015250565b60006112c0602083610ad1565b91506112cb8261128a565b602082019050919050565b600060208201905081810360008301526112ef816112b3565b9050919050565b7f496e76616c69642073746174757320636f646500000000000000000000000000600082015250565b600061132c601383610ad1565b9150611337826112f6565b602082019050919050565b6000602082019050818103600083015261135b8161131f565b9050919050565b60008190508160005260206000209050919050565b60006020601f8301049050919050565b600082821b905092915050565b6000600883026113c47fffffffffffffffffffffffffffffffffffffffffffffffffffffffffffffffff82611387565b6113ce8683611387565b95508019841693508086168417925050509392505050565b6000819050919050565b600061140b61140661140184610b45565b6113e6565b610b45565b9050919050565b6000819050919050565b611425836113f0565b61143961143182611412565b848454611394565b825550505050565b600090565b61144e611441565b61145981848461141c565b505050565b5b8181101561147d57611472600082611446565b60018101905061145f565b5050565b601f8211156114c25761149381611362565b61149c84611377565b810160208510156114ab578190505b6114bf6114b785611377565b83018261145e565b50505b505050565b600082821c905092915050565b60006114e5600019846008026114c7565b1980831691505092915050565b60006114fe83836114d4565b9150826002028217905092915050565b61151782610ac6565b67ffffffffffffffff8111156115305761152f610952565b5b61153a8254611088565b611545828285611481565b600060209050601f8311600181146115785760008415611566578287015190505b61157085826114f2565b8655506115d8565b601f19841661158686611362565b60005b828110156115ae57848901518255600182019150602085019450602081019050611589565b868310156115cb57848901516115c7601f8916826114d4565b8355505b6001600288020188555050505b505050505050565b60006060820190506115f56000830186610b4f565b6116026020830185610b6b565b61160f6040830184610b4f565b94935050505056fea26469706673582212202e26ab86ff9d00c9e84bc53d5b26b31e766cb4296ddfc0eb73a80e96b100369064736f6c63430008130033",
  "linkReferences": {},
  "deployedLinkReferences": {}
}